{
    "contractName": "Stamper",
    "abi": [
        {
            "inputs": [],
            "stateMutability": "nonpayable",
            "type": "constructor"
        },
        {
            "anonymous": false,
            "inputs": [
                {
                    "indexed": true,
                    "internalType": "address",
                    "name": "from",
                    "type": "address"
                },
                {
                    "indexed": true,
                    "internalType": "bytes32",
                    "name": "object",
                    "type": "bytes32"
                },
                {
                    "indexed": false,
                    "internalType": "uint256",
                    "name": "blockNo",
                    "type": "uint256"
                }
            ],
            "name": "Stamped",
            "type": "event"
        },
        {
            "inputs": [
                {
                    "internalType": "bytes32",
                    "name": "object",
                    "type": "bytes32"
                },
                {
                    "internalType": "address",
                    "name": "stamper",
                    "type": "address"
                }
            ],
            "name": "getBlockNo",
            "outputs": [
                {
                    "internalType": "uint256",
                    "name": "",
                    "type": "uint256"
                }
            ],
            "stateMutability": "view",
            "type": "function"
        },
        {
            "inputs": [
                {
                    "internalType": "bytes32",
                    "name": "object",
                    "type": "bytes32"
                }
            ],
            "name": "getObjectCount",
            "outputs": [
                {
                    "internalType": "uint256",
                    "name": "",
                    "type": "uint256"
                }
            ],
            "stateMutability": "view",
            "type": "function"
        },
        {
            "inputs": [
                {
                    "internalType": "bytes32",
                    "name": "object",
                    "type": "bytes32"
                },
                {
                    "internalType": "uint256",
                    "name": "pos",
                    "type": "uint256"
                }
            ],
            "name": "getObjectPos",
            "outputs": [
                {
                    "internalType": "uint256",
                    "name": "",
                    "type": "uint256"
                }
            ],
            "stateMutability": "view",
            "type": "function"
        },
        {
            "inputs": [
                {
                    "internalType": "address",
                    "name": "stamper",
                    "type": "address"
                }
            ],
            "name": "getStamperCount",
            "outputs": [
                {
                    "internalType": "uint256",
                    "name": "",
                    "type": "uint256"
                }
            ],
            "stateMutability": "view",
            "type": "function"
        },
        {
            "inputs": [
                {
                    "internalType": "address",
                    "name": "stamper",
                    "type": "address"
                },
                {
                    "internalType": "uint256",
                    "name": "pos",
                    "type": "uint256"
                }
            ],
            "name": "getStamperPos",
            "outputs": [
                {
                    "internalType": "uint256",
                    "name": "",
                    "type": "uint256"
                }
            ],
            "stateMutability": "view",
            "type": "function"
        },
        {
            "inputs": [
                {
                    "internalType": "uint256",
                    "name": "pos",
                    "type": "uint256"
                }
            ],
            "name": "getStamplistPos",
            "outputs": [
                {
                    "internalType": "bytes32",
                    "name": "",
                    "type": "bytes32"
                },
                {
                    "internalType": "address",
                    "name": "",
                    "type": "address"
                },
                {
                    "internalType": "uint256",
                    "name": "",
                    "type": "uint256"
                }
            ],
            "stateMutability": "view",
            "type": "function"
        },
        {
            "inputs": [
                {
                    "internalType": "bytes32[]",
                    "name": "objectList",
                    "type": "bytes32[]"
                }
            ],
            "name": "put",
            "outputs": [],
            "stateMutability": "nonpayable",
            "type": "function"
        }
    ],
    "bytecode": "60803461013657600380546001600160a01b03191633179055606081016001600160401b03811182821017610122576040525f815260208101338152604082014381525f5491680100000000000000008310156101225760018301805f5583101561010e575f8052925160039092027f290decd9548b62a8d60345a988386fc84ba6bc95484008f6362f93160ef3e56381019290925591517f290decd9548b62a8d60345a988386fc84ba6bc95484008f6362f93160ef3e564820180546001600160a01b0319166001600160a01b039290921691909117905590517f290decd9548b62a8d60345a988386fc84ba6bc95484008f6362f93160ef3e56590910155604051610595908161013b8239f35b634e487b7160e01b5f52603260045260245ffd5b634e487b7160e01b5f52604160045260245ffd5b5f80fdfe60806040526004361015610011575f80fd5b5f3560e01c80633a00faae14610205578063789bbb41146101c35780639d19242814610168578063a08d1a4f14610106578063bbc48b7c146100cc578063c15ed491146100945763c2433cd314610066575f80fd5b34610090576020366003190112610090576004355f526001602052602060405f2054604051908152f35b5f80fd5b34610090576020366003190112610090576001600160a01b036100b56103e9565b165f526002602052602060405f2054604051908152f35b34610090576040366003190112610090576024356001600160a01b0381168103610090576100fe6020916004356104ec565b604051908152f35b346100905760403660031901126100905760206101596101246103e9565b6001600160a01b03165f818152600284526040902054602435919061014a908310610480565b5f526002835260405f20610437565b90549060031b1c604051908152f35b3461009057602036600319011261009057606061019b6101956004356101905f548210610480565b6103ff565b506104c0565b805190604060018060a01b036020830151169101519060405192835260208301526040820152f35b3461009057604036600319011261009057602061015960043560243590805f52600184526101f660405f20548310610480565b5f526001835260405f20610437565b346100905760203660031901126100905760043567ffffffffffffffff811161009057366023820112156100905780600401359067ffffffffffffffff8211610391578160051b60405192601f19603f830116840184811067ffffffffffffffff821117610391576040528352602460208401918301019136831161009057602401905b8282106103b9578351845f5b82811061029e57005b81518110156103a55760208160051b83010151905f54916102bd6103c9565b9281845260208401903382526040850194438652600160401b82101561039157600182015f556102ec826103ff565b91909161037e5760019661034c9460029251845588840190898060a01b039051166bffffffffffffffffffffffff60a01b82541617905551910155825f528460205261033b8160405f2061044c565b335f52600260205260405f2061044c565b6040514381527f3a0b5d7066b49e6f19e8199e84c7a296092240386482cc1b23a7c4e3c98a79d560203392a301610295565b634e487b7160e01b5f525f60045260245ffd5b634e487b7160e01b5f52604160045260245ffd5b634e487b7160e01b5f52603260045260245ffd5b8135815260209182019101610289565b604051906060820182811067ffffffffffffffff82111761039157604052565b600435906001600160a01b038216820361009057565b5f548110156103a5575f8080526003919091027f290decd9548b62a8d60345a988386fc84ba6bc95484008f6362f93160ef3e5630191565b80548210156103a5575f5260205f2001905f90565b8054600160401b8110156103915761046991600182018155610437565b819291549060031b91821b915f19901b1916179055565b1561048757565b60405162461bcd60e51b8152602060048201526011602482015270506f736963696f6e20696e76616c69646160781b6044820152606490fd5b9060026104cb6103c9565b8354815260018401546001600160a01b031660208201529201546040830152565b90815f52600160205260405f2054915f5b83811061050c57505050505f90565b815f5260016020526105336101956105278360405f20610437565b90549060031b1c6103ff565b60208101516001600160a01b0385811691161461055357506001016104fd565b6040015194935050505056fea2646970667358221220e2a74372baadce8cfc1702ad396b71ab522aca1f3ef4665f6f4636510b8c242f64736f6c634300081c0033",
    "sourcePath": "c:/Users/fabi4/Desktop/contracts/Stamper.sol",
    "compiler": {
        "name": "solc",
        "version": "0.8.28+commit.7893614a"
    },
    "functionHashes": {
        "getBlockNo(bytes32,address)": "bbc48b7c",
        "getObjectCount(bytes32)": "c2433cd3",
        "getObjectPos(bytes32,uint256)": "789bbb41",
        "getStamperCount(address)": "c15ed491",
        "getStamperPos(address,uint256)": "a08d1a4f",
        "getStamplistPos(uint256)": "9d192428",
        "put(bytes32[])": "3a00faae"
    },
    "gasEstimates": {
        "creation": {
            "codeDepositCost": "285800",
            "executionCost": "100387",
            "totalCost": "386187"
        },
        "external": {
            "getBlockNo(bytes32,address)": "infinite",
            "getObjectCount(bytes32)": "2442",
            "getObjectPos(bytes32,uint256)": "6775",
            "getStamperCount(address)": "2508",
            "getStamperPos(address,uint256)": "6914",
            "getStamplistPos(uint256)": "11102",
            "put(bytes32[])": "infinite"
        }
    }
}